{
  "_format": "hh-sol-artifact-1",
  "contractName": "MintaroEscrow",
  "sourceName": "contracts/MintaroEscrow.sol",
  "abi": [
    {
      "inputs": [
        {
          "internalType": "address payable",
          "name": "_feeTreasury",
          "type": "address"
        }
      ],
      "stateMutability": "nonpayable",
      "type": "constructor"
    },
    {
      "inputs": [],
      "name": "EnforcedPause",
      "type": "error"
    },
    {
      "inputs": [],
      "name": "ExpectedPause",
      "type": "error"
    },
    {
      "inputs": [
        {
          "internalType": "address",
          "name": "owner",
          "type": "address"
        }
      ],
      "name": "OwnableInvalidOwner",
      "type": "error"
    },
    {
      "inputs": [
        {
          "internalType": "address",
          "name": "account",
          "type": "address"
        }
      ],
      "name": "OwnableUnauthorizedAccount",
      "type": "error"
    },
    {
      "inputs": [],
      "name": "ReentrancyGuardReentrantCall",
      "type": "error"
    },
    {
      "inputs": [
        {
          "internalType": "address",
          "name": "token",
          "type": "address"
        }
      ],
      "name": "SafeERC20FailedOperation",
      "type": "error"
    },
    {
      "anonymous": false,
      "inputs": [
        {
          "indexed": true,
          "internalType": "uint256",
          "name": "id",
          "type": "uint256"
        }
      ],
      "name": "CancelRequested",
      "type": "event"
    },
    {
      "anonymous": false,
      "inputs": [
        {
          "indexed": true,
          "internalType": "uint256",
          "name": "id",
          "type": "uint256"
        }
      ],
      "name": "DisputeOpened",
      "type": "event"
    },
    {
      "anonymous": false,
      "inputs": [
        {
          "indexed": true,
          "internalType": "uint256",
          "name": "id",
          "type": "uint256"
        },
        {
          "indexed": false,
          "internalType": "uint256",
          "name": "clientPayout",
          "type": "uint256"
        },
        {
          "indexed": false,
          "internalType": "uint256",
          "name": "freelancerPayout",
          "type": "uint256"
        }
      ],
      "name": "DisputeResolved",
      "type": "event"
    },
    {
      "anonymous": false,
      "inputs": [
        {
          "indexed": true,
          "internalType": "uint256",
          "name": "id",
          "type": "uint256"
        },
        {
          "indexed": false,
          "internalType": "uint256",
          "name": "refundAmount",
          "type": "uint256"
        }
      ],
      "name": "EscrowCanceled",
      "type": "event"
    },
    {
      "anonymous": false,
      "inputs": [
        {
          "indexed": true,
          "internalType": "uint256",
          "name": "id",
          "type": "uint256"
        }
      ],
      "name": "EscrowCompleted",
      "type": "event"
    },
    {
      "anonymous": false,
      "inputs": [
        {
          "indexed": true,
          "internalType": "uint256",
          "name": "id",
          "type": "uint256"
        },
        {
          "indexed": true,
          "internalType": "address",
          "name": "client",
          "type": "address"
        },
        {
          "indexed": true,
          "internalType": "address",
          "name": "freelancer",
          "type": "address"
        },
        {
          "indexed": false,
          "internalType": "address",
          "name": "token",
          "type": "address"
        },
        {
          "indexed": false,
          "internalType": "uint256",
          "name": "totalAmount",
          "type": "uint256"
        }
      ],
      "name": "EscrowCreated",
      "type": "event"
    },
    {
      "anonymous": false,
      "inputs": [
        {
          "indexed": true,
          "internalType": "uint256",
          "name": "id",
          "type": "uint256"
        },
        {
          "indexed": true,
          "internalType": "address",
          "name": "from",
          "type": "address"
        },
        {
          "indexed": false,
          "internalType": "uint256",
          "name": "amount",
          "type": "uint256"
        }
      ],
      "name": "EscrowFunded",
      "type": "event"
    },
    {
      "anonymous": false,
      "inputs": [
        {
          "indexed": true,
          "internalType": "address",
          "name": "newTreasury",
          "type": "address"
        }
      ],
      "name": "FeeTreasuryUpdated",
      "type": "event"
    },
    {
      "anonymous": false,
      "inputs": [
        {
          "indexed": false,
          "internalType": "uint16",
          "name": "newFeeBps",
          "type": "uint16"
        }
      ],
      "name": "FeeUpdated",
      "type": "event"
    },
    {
      "anonymous": false,
      "inputs": [
        {
          "indexed": true,
          "internalType": "uint256",
          "name": "id",
          "type": "uint256"
        },
        {
          "indexed": true,
          "internalType": "uint256",
          "name": "index",
          "type": "uint256"
        },
        {
          "indexed": false,
          "internalType": "uint256",
          "name": "amount",
          "type": "uint256"
        },
        {
          "indexed": false,
          "internalType": "uint256",
          "name": "fee",
          "type": "uint256"
        }
      ],
      "name": "MilestoneApproved",
      "type": "event"
    },
    {
      "anonymous": false,
      "inputs": [
        {
          "indexed": true,
          "internalType": "address",
          "name": "previousOwner",
          "type": "address"
        },
        {
          "indexed": true,
          "internalType": "address",
          "name": "newOwner",
          "type": "address"
        }
      ],
      "name": "OwnershipTransferred",
      "type": "event"
    },
    {
      "anonymous": false,
      "inputs": [
        {
          "indexed": false,
          "internalType": "address",
          "name": "account",
          "type": "address"
        }
      ],
      "name": "Paused",
      "type": "event"
    },
    {
      "anonymous": false,
      "inputs": [
        {
          "indexed": false,
          "internalType": "address",
          "name": "account",
          "type": "address"
        }
      ],
      "name": "Unpaused",
      "type": "event"
    },
    {
      "anonymous": false,
      "inputs": [
        {
          "indexed": true,
          "internalType": "address",
          "name": "account",
          "type": "address"
        },
        {
          "indexed": true,
          "internalType": "address",
          "name": "token",
          "type": "address"
        },
        {
          "indexed": false,
          "internalType": "uint256",
          "name": "amount",
          "type": "uint256"
        }
      ],
      "name": "Withdrawal",
      "type": "event"
    },
    {
      "anonymous": false,
      "inputs": [
        {
          "indexed": true,
          "internalType": "uint256",
          "name": "id",
          "type": "uint256"
        }
      ],
      "name": "WorkStarted",
      "type": "event"
    },
    {
      "inputs": [],
      "name": "MAX_FEE_BPS",
      "outputs": [
        {
          "internalType": "uint16",
          "name": "",
          "type": "uint16"
        }
      ],
      "stateMutability": "view",
      "type": "function"
    },
    {
      "inputs": [],
      "name": "NATIVE_TOKEN",
      "outputs": [
        {
          "internalType": "address",
          "name": "",
          "type": "address"
        }
      ],
      "stateMutability": "view",
      "type": "function"
    },
    {
      "inputs": [
        {
          "internalType": "uint256",
          "name": "id",
          "type": "uint256"
        }
      ],
      "name": "acceptCancel",
      "outputs": [],
      "stateMutability": "nonpayable",
      "type": "function"
    },
    {
      "inputs": [
        {
          "internalType": "uint256",
          "name": "id",
          "type": "uint256"
        },
        {
          "internalType": "uint256",
          "name": "index",
          "type": "uint256"
        }
      ],
      "name": "approveMilestone",
      "outputs": [],
      "stateMutability": "nonpayable",
      "type": "function"
    },
    {
      "inputs": [
        {
          "internalType": "address",
          "name": "freelancer",
          "type": "address"
        },
        {
          "internalType": "address",
          "name": "token",
          "type": "address"
        },
        {
          "internalType": "uint256[]",
          "name": "amounts",
          "type": "uint256[]"
        },
        {
          "internalType": "string[]",
          "name": "titles",
          "type": "string[]"
        },
        {
          "internalType": "uint32[]",
          "name": "dueDates",
          "type": "uint32[]"
        }
      ],
      "name": "createEscrow",
      "outputs": [
        {
          "internalType": "uint256",
          "name": "id",
          "type": "uint256"
        }
      ],
      "stateMutability": "nonpayable",
      "type": "function"
    },
    {
      "inputs": [],
      "name": "feeBps",
      "outputs": [
        {
          "internalType": "uint16",
          "name": "",
          "type": "uint16"
        }
      ],
      "stateMutability": "view",
      "type": "function"
    },
    {
      "inputs": [],
      "name": "feeTreasury",
      "outputs": [
        {
          "internalType": "address payable",
          "name": "",
          "type": "address"
        }
      ],
      "stateMutability": "view",
      "type": "function"
    },
    {
      "inputs": [
        {
          "internalType": "uint256",
          "name": "id",
          "type": "uint256"
        },
        {
          "internalType": "uint256",
          "name": "amount",
          "type": "uint256"
        }
      ],
      "name": "fundEscrow",
      "outputs": [],
      "stateMutability": "payable",
      "type": "function"
    },
    {
      "inputs": [
        {
          "internalType": "uint256",
          "name": "id",
          "type": "uint256"
        }
      ],
      "name": "getEscrowBasic",
      "outputs": [
        {
          "internalType": "address",
          "name": "client",
          "type": "address"
        },
        {
          "internalType": "address",
          "name": "freelancer",
          "type": "address"
        },
        {
          "internalType": "address",
          "name": "token",
          "type": "address"
        },
        {
          "internalType": "uint256",
          "name": "totalDeposited",
          "type": "uint256"
        },
        {
          "internalType": "uint256",
          "name": "totalAllocated",
          "type": "uint256"
        },
        {
          "internalType": "uint256",
          "name": "totalReleased",
          "type": "uint256"
        },
        {
          "internalType": "enum MintaroEscrow.EscrowState",
          "name": "state",
          "type": "uint8"
        },
        {
          "internalType": "uint256",
          "name": "milestonesCount",
          "type": "uint256"
        }
      ],
      "stateMutability": "view",
      "type": "function"
    },
    {
      "inputs": [
        {
          "internalType": "uint256",
          "name": "id",
          "type": "uint256"
        },
        {
          "internalType": "uint256",
          "name": "index",
          "type": "uint256"
        }
      ],
      "name": "getMilestone",
      "outputs": [
        {
          "internalType": "uint256",
          "name": "amount",
          "type": "uint256"
        },
        {
          "internalType": "string",
          "name": "title",
          "type": "string"
        },
        {
          "internalType": "uint32",
          "name": "dueDate",
          "type": "uint32"
        },
        {
          "internalType": "bool",
          "name": "approved",
          "type": "bool"
        },
        {
          "internalType": "bool",
          "name": "released",
          "type": "bool"
        }
      ],
      "stateMutability": "view",
      "type": "function"
    },
    {
      "inputs": [
        {
          "internalType": "uint256",
          "name": "id",
          "type": "uint256"
        }
      ],
      "name": "getMilestonesCount",
      "outputs": [
        {
          "internalType": "uint256",
          "name": "",
          "type": "uint256"
        }
      ],
      "stateMutability": "view",
      "type": "function"
    },
    {
      "inputs": [],
      "name": "nextEscrowId",
      "outputs": [
        {
          "internalType": "uint256",
          "name": "",
          "type": "uint256"
        }
      ],
      "stateMutability": "view",
      "type": "function"
    },
    {
      "inputs": [
        {
          "internalType": "uint256",
          "name": "id",
          "type": "uint256"
        }
      ],
      "name": "openDispute",
      "outputs": [],
      "stateMutability": "nonpayable",
      "type": "function"
    },
    {
      "inputs": [],
      "name": "owner",
      "outputs": [
        {
          "internalType": "address",
          "name": "",
          "type": "address"
        }
      ],
      "stateMutability": "view",
      "type": "function"
    },
    {
      "inputs": [],
      "name": "pause",
      "outputs": [],
      "stateMutability": "nonpayable",
      "type": "function"
    },
    {
      "inputs": [],
      "name": "paused",
      "outputs": [
        {
          "internalType": "bool",
          "name": "",
          "type": "bool"
        }
      ],
      "stateMutability": "view",
      "type": "function"
    },
    {
      "inputs": [
        {
          "internalType": "address",
          "name": "",
          "type": "address"
        },
        {
          "internalType": "address",
          "name": "",
          "type": "address"
        }
      ],
      "name": "pending",
      "outputs": [
        {
          "internalType": "uint256",
          "name": "",
          "type": "uint256"
        }
      ],
      "stateMutability": "view",
      "type": "function"
    },
    {
      "inputs": [
        {
          "internalType": "address",
          "name": "token",
          "type": "address"
        },
        {
          "internalType": "uint256",
          "name": "amount",
          "type": "uint256"
        }
      ],
      "name": "recoverERC20",
      "outputs": [],
      "stateMutability": "nonpayable",
      "type": "function"
    },
    {
      "inputs": [],
      "name": "renounceOwnership",
      "outputs": [],
      "stateMutability": "nonpayable",
      "type": "function"
    },
    {
      "inputs": [
        {
          "internalType": "uint256",
          "name": "id",
          "type": "uint256"
        }
      ],
      "name": "requestCancel",
      "outputs": [],
      "stateMutability": "nonpayable",
      "type": "function"
    },
    {
      "inputs": [
        {
          "internalType": "uint256",
          "name": "id",
          "type": "uint256"
        },
        {
          "internalType": "uint256",
          "name": "clientPayout",
          "type": "uint256"
        },
        {
          "internalType": "uint256",
          "name": "freelancerPayout",
          "type": "uint256"
        }
      ],
      "name": "resolveDispute",
      "outputs": [],
      "stateMutability": "nonpayable",
      "type": "function"
    },
    {
      "inputs": [
        {
          "internalType": "uint16",
          "name": "newFeeBps",
          "type": "uint16"
        }
      ],
      "name": "setFeeBps",
      "outputs": [],
      "stateMutability": "nonpayable",
      "type": "function"
    },
    {
      "inputs": [
        {
          "internalType": "address payable",
          "name": "newTreasury",
          "type": "address"
        }
      ],
      "name": "setFeeTreasury",
      "outputs": [],
      "stateMutability": "nonpayable",
      "type": "function"
    },
    {
      "inputs": [
        {
          "internalType": "uint256",
          "name": "id",
          "type": "uint256"
        }
      ],
      "name": "startWork",
      "outputs": [],
      "stateMutability": "nonpayable",
      "type": "function"
    },
    {
      "inputs": [
        {
          "internalType": "address",
          "name": "newOwner",
          "type": "address"
        }
      ],
      "name": "transferOwnership",
      "outputs": [],
      "stateMutability": "nonpayable",
      "type": "function"
    },
    {
      "inputs": [],
      "name": "unpause",
      "outputs": [],
      "stateMutability": "nonpayable",
      "type": "function"
    },
    {
      "inputs": [],
      "name": "withdrawNative",
      "outputs": [],
      "stateMutability": "nonpayable",
      "type": "function"
    },
    {
      "inputs": [
        {
          "internalType": "address",
          "name": "token",
          "type": "address"
        }
      ],
      "name": "withdrawToken",
      "outputs": [],
      "stateMutability": "nonpayable",
      "type": "function"
    },
    {
      "stateMutability": "payable",
      "type": "receive"
    }
  ],
  "bytecode": "0x60806040526002805461ffff191660c817905560016003553480156200002457600080fd5b5060405162002a0e38038062002a0e83398101604081905262000047916200014d565b33806200006f57604051631e4fbdf760e01b8152600060048201526024015b60405180910390fd5b6200007a81620000fd565b50600180556001600160a01b038116620000d75760405162461bcd60e51b815260206004820152601560248201527f6665652074726561737572792072657175697265640000000000000000000000604482015260640162000066565b600680546001600160a01b0319166001600160a01b03929092169190911790556200017f565b600080546001600160a01b038381166001600160a01b0319831681178455604051919092169283917f8be0079c531659141344cd1fd0a4f28419497f9722a3daafe3b4186f6b6457e09190a35050565b6000602082840312156200016057600080fd5b81516001600160a01b03811681146200017857600080fd5b9392505050565b61287f806200018f6000396000f3fe6080604052600436106101bb5760003560e01c8063715018a6116100ec578063a2d53f9a1161008a578063bfa37e3711610064578063bfa37e37146105a7578063d55be8c6146105c7578063e683a2d4146105dd578063f2fde38b146105fd57600080fd5b8063a2d53f9a146104dd578063a4380103146104f0578063a7e5b6f31461057757600080fd5b80638980f11f116100c65780638980f11f1461045857806389cb29dd146104785780638da5cb5b1461048e5780638ed9895c146104ac57600080fd5b8063715018a61461040e5780638456cb5914610423578063894760691461043857600080fd5b806331f7d964116101595780634442e4f7116101335780634442e4f71461038f57806350431ce4146103af5780635c975abb146103c457806360dc2340146103ee57600080fd5b806331f7d9641461032d5780633f4ba83a1461035a5780633fabe74f1461036f57600080fd5b806320913da51161019557806320913da51461029f57806324a9d853146102bf57806325b01224146102ed57806327d00fb01461030d57600080fd5b8063023b1fc91461021257806303a250f91461023457806319bc9ae81461025457600080fd5b3661020d5760405162461bcd60e51b815260206004820152601860248201527f6469726563742041564158206e6f74206163636570746564000000000000000060448201526064015b60405180910390fd5b600080fd5b34801561021e57600080fd5b5061023261022d36600461224c565b61061d565b005b34801561024057600080fd5b5061023261024f366004612270565b6106b4565b34801561026057600080fd5b5061028c61026f36600461229e565b600560209081526000928352604080842090915290825290205481565b6040519081526020015b60405180910390f35b3480156102ab57600080fd5b506102326102ba3660046122d7565b610785565b3480156102cb57600080fd5b506002546102da9061ffff1681565b60405161ffff9091168152602001610296565b3480156102f957600080fd5b5061028c610308366004612345565b610be4565b34801561031957600080fd5b50610232610328366004612270565b611050565b34801561033957600080fd5b50610342600081565b6040516001600160a01b039091168152602001610296565b34801561036657600080fd5b50610232611185565b34801561037b57600080fd5b5061023261038a366004612404565b611197565b34801561039b57600080fd5b506102326103aa366004612270565b61134a565b3480156103bb57600080fd5b506102326114b7565b3480156103d057600080fd5b50600054600160a01b900460ff166040519015158152602001610296565b3480156103fa57600080fd5b50600654610342906001600160a01b031681565b34801561041a57600080fd5b50610232611631565b34801561042f57600080fd5b50610232611643565b34801561044457600080fd5b50610232610453366004612430565b611653565b34801561046457600080fd5b5061023261047336600461244d565b61178c565b34801561048457600080fd5b5061028c60035481565b34801561049a57600080fd5b506000546001600160a01b0316610342565b3480156104b857600080fd5b506104cc6104c73660046122d7565b611938565b604051610296959493929190612479565b6102326104eb3660046122d7565b611a89565b3480156104fc57600080fd5b5061056361050b366004612270565b6000908152600460208190526040909120805460018201546002830154600384015494840154600585015460068601546007909601546001600160a01b03958616989486169795909316959193909260ff9092169190565b60405161029698979695949392919061250a565b34801561058357600080fd5b5061028c610592366004612270565b60009081526004602052604090206007015490565b3480156105b357600080fd5b506102326105c2366004612430565b611cec565b3480156105d357600080fd5b506102da6101f481565b3480156105e957600080fd5b506102326105f8366004612270565b611d83565b34801561060957600080fd5b50610232610618366004612430565b611edf565b610625611f1a565b6101f461ffff8216111561066a5760405162461bcd60e51b815260206004820152600c60248201526b0cccaca40e8dede40d0d2ced60a31b6044820152606401610204565b6002805461ffff191661ffff83169081179091556040519081527fc8fcf8ee1425e7e60b8af83735e1eb516d5b9ef05bfd6eece552ebaeb7c75b489060200160405180910390a150565b6106bc611f47565b60008181526004602052604090205481906001600160a01b031633146106f45760405162461bcd60e51b815260040161020490612574565b81600180600083815260046020526040902060069081015460ff169081111561071f5761071f6124f4565b1461073c5760405162461bcd60e51b815260040161020490612598565b600084815260046020526040808220600601805460ff191660021790555185917fc3c378194d9e90cdb8b913079ee164e56f5f5286b5ebff8c41501540bd3e267091a250505050565b61078d611f47565b60008281526004602052604090205482906001600160a01b031633146107c55760405162461bcd60e51b815260040161020490612574565b6107cd611f72565b6000838152600460205260409020600560068083015460ff16908111156107f6576107f66124f4565b1415801561081b575060068181015460ff1681811115610818576108186124f4565b14155b80156108405750600360068083015460ff169081111561083d5761083d6124f4565b14155b61087a5760405162461bcd60e51b815260206004820152600b60248201526a1b9bdd08185b1b1bddd95960aa1b6044820152606401610204565b80600401548160030154146108c45760405162461bcd60e51b815260206004820152601060248201526f1b9bdd08199d5b1b1e48199d5b99195960821b6044820152606401610204565b600781015483106109035760405162461bcd60e51b81526020600482015260096024820152680c4c2c840d2dcc8caf60bb1b6044820152606401610204565b600081600701848154811061091a5761091a6125bb565b906000526020600020906003020190508060020160049054906101000a900460ff161580156109575750600281015465010000000000900460ff16155b6109965760405162461bcd60e51b815260206004820152601060248201526f185b1c9958591e48185c1c1c9bdd995960821b6044820152606401610204565b8054600383015460058401546109ad9083906125e7565b11156109f45760405162461bcd60e51b81526020600482015260166024820152751a5b9cdd59999a58da595b9d0819195c1bdcda5d195960521b6044820152606401610204565b60025460009061271090610a0c9061ffff1684612600565b610a169190612617565b90506000610a248284612639565b60028601546001600160a01b03908116600090815260056020908152604080832060018b0154909416835292905290812080549293508392909190610a6a9084906125e7565b90915550508115610aba5760028501546001600160a01b03908116600090815260056020908152604080832060065490941683529290529081208054849290610ab49084906125e7565b90915550505b60028401805465ffff00000000191665010100000000179055600585018054849190600090610aea9084906125e7565b909155506001905060068087015460ff1690811115610b0b57610b0b6124f4565b03610b4b5760068501805460ff1916600217905560405188907fc3c378194d9e90cdb8b913079ee164e56f5f5286b5ebff8c41501540bd3e267090600090a25b604080518481526020810184905288918a917f9b9ff2232bef25105f0ccb79a748e9f9d8e01a04485cd0401aa0d1c34b94ba93910160405180910390a3610b9185611f9c565b15610bd15760068501805460ff1916600317905560405188907f9285bd636dda01bef18996aa38303bb742f6c67a6941646dddb17630cb492c2e90600090a25b5050505050610bdf60018055565b505050565b6000610bee611f47565b6001600160a01b038916610c3a5760405162461bcd60e51b8152602060048201526013602482015272199c99595b185b98d95c881c995c5d5a5c9959606a1b6044820152606401610204565b336001600160a01b038a1603610c895760405162461bcd60e51b815260206004820152601460248201527331b634b2b73a10109e90333932b2b630b731b2b960611b6044820152606401610204565b8580610ccd5760405162461bcd60e51b81526020600482015260136024820152721b5a5b195cdd1bdb995cc81c995c5d5a5c9959606a1b6044820152606401610204565b8481148015610cdb57508281145b610d1f5760405162461bcd60e51b81526020600482015260156024820152740c2e4e4c2f240d8cadccee8d040dad2e6dac2e8c6d605b1b6044820152606401610204565b60038054906000610d2f8361264c565b9190505591506000600460008481526020019081526020016000209050338160000160006101000a8154816001600160a01b0302191690836001600160a01b031602179055508a8160010160006101000a8154816001600160a01b0302191690836001600160a01b03160217905550898160020160006101000a8154816001600160a01b0302191690836001600160a01b0316021790555060008160060160006101000a81548160ff02191690836006811115610dee57610dee6124f4565b02179055506000805b83811015610fdf5760008b8b83818110610e1357610e136125bb565b9050602002013511610e585760405162461bcd60e51b815260206004820152600e60248201526d7a65726f206d696c6573746f6e6560901b6044820152606401610204565b826007016040518060a001604052808d8d85818110610e7957610e796125bb565b9050602002013581526020018b8b85818110610e9757610e976125bb565b9050602002810190610ea99190612665565b8080601f016020809104026020016040519081016040528093929190818152602001838380828437600092019190915250505090825250602001898985818110610ef557610ef56125bb565b9050602002016020810190610f0a91906126ac565b63ffffffff168152600060208083018290526040909201819052835460018181018655948252908290208351600390920201908155908201519192909190820190610f559082612770565b5060408201516002909101805460608401516080909401511515650100000000000265ff0000000000199415156401000000000264ffffffffff1990921663ffffffff9094169390931717929092161790558a8a82818110610fb957610fb96125bb565b9050602002013582610fcb91906125e7565b915080610fd78161264c565b915050610df7565b5060048201819055600182015482546002840154604080516001600160a01b0392831681526020810186905293821693919092169187917fcaf993c592f602a7d225c8556e07d471f93e7c0f2609647024e59018f5a521ac910160405180910390a450505098975050505050505050565b611058611f47565b600081815260046020526040902080546001600160a01b031633148061108a575060018101546001600160a01b031633145b6110c85760405162461bcd60e51b815260206004820152600f60248201526e1b9bdd081c185c9d1a58da5c185b9d608a1b6044820152606401610204565b600160068083015460ff16908111156110e3576110e36124f4565b14806111075750600260068083015460ff1690811115611105576111056124f4565b145b8061112a5750600460068083015460ff1690811115611128576111286124f4565b145b6111465760405162461bcd60e51b815260040161020490612598565b6006818101805460ff1916909117905560405182907fed50123fe46d12537dcaae53f33aee1c64bcc9e4f222560f3bae6c0824040dd390600090a25050565b61118d611f1a565b611195612008565b565b61119f611f1a565b6111a7611f72565b600083815260046020526040902060068082015460ff16818111156111ce576111ce6124f4565b1461120a5760405162461bcd60e51b815260206004820152600c60248201526b1b9bdd08191a5cdc1d5d195960a21b6044820152606401610204565b60006112158561205d565b90508061122284866125e7565b1461125e5760405162461bcd60e51b815260206004820152600c60248201526b0e6eada40dad2e6dac2e8c6d60a31b6044820152606401610204565b83156112a85760028201546001600160a01b0390811660009081526005602090815260408083208654909416835292905290812080548692906112a29084906125e7565b90915550505b82156112f55760028201546001600160a01b0390811660009081526005602090815260408083206001870154909416835292905290812080548592906112ef9084906125e7565b90915550505b60068201805460ff19166005179055604080518581526020810185905286917f959dc01840aa516bf9407cffa45326c7b6821c48feff7b91eb0c743c8f460fd6910160405180910390a25050610bdf60018055565b611352611f47565b60008181526004602052604090206001015481906001600160a01b031633146113ae5760405162461bcd60e51b815260206004820152600e60248201526d3737ba10333932b2b630b731b2b960911b6044820152606401610204565b81600480600083815260046020526040902060069081015460ff16908111156113d9576113d96124f4565b146113f65760405162461bcd60e51b815260040161020490612598565b6113fe611f72565b6000848152600460205260408120906114168661205d565b905080156114625760028201546001600160a01b03908116600090815260056020908152604080832086549094168352929052908120805483929061145c9084906125e7565b90915550505b60068201805460ff1916600517905560405181815286907f912e30bea88d105f456ec136c1d19ce1050ad23b6a9111011bd16455150aed079060200160405180910390a250506114b160018055565b50505050565b6114bf611f72565b3360009081527f05b8ccbb9d4d8fb16ea74ce3c29a41f1b461fbdaff4714a0d9a8eb05499746bc6020526040902054806115315760405162461bcd60e51b81526020600482015260136024820152726e6f7468696e6720746f20776974686472617760681b6044820152606401610204565b3360008181527f05b8ccbb9d4d8fb16ea74ce3c29a41f1b461fbdaff4714a0d9a8eb05499746bc60205260408082208290555190919083908381818185875af1925050503d80600081146115a1576040519150601f19603f3d011682016040523d82523d6000602084013e6115a6565b606091505b50509050806115ee5760405162461bcd60e51b815260206004820152601460248201527310559056081d1c985b9cd9995c8819985a5b195960621b6044820152606401610204565b60405182815260009033907f2717ead6b9200dd235aad468c9809ea400fe33ac69b5bfaa6d3e90fc922b63989060200160405180910390a3505061119560018055565b611639611f1a565b6111956000612086565b61164b611f1a565b6111956120d6565b61165b611f72565b6001600160a01b0381166116a65760405162461bcd60e51b81526020600482015260126024820152717573652077697468647261774e617469766560701b6044820152606401610204565b6001600160a01b03811660009081526005602090815260408083203384529091529020548061170d5760405162461bcd60e51b81526020600482015260136024820152726e6f7468696e6720746f20776974686472617760681b6044820152606401610204565b6001600160a01b038216600081815260056020908152604080832033808552925282209190915561173f919083612119565b6040518181526001600160a01b0383169033907f2717ead6b9200dd235aad468c9809ea400fe33ac69b5bfaa6d3e90fc922b63989060200160405180910390a35061178960018055565b50565b611794611f1a565b61179c612178565b6001600160a01b0382166117de5760405162461bcd60e51b81526020600482015260096024820152683130b2103a37b5b2b760b91b6044820152606401610204565b600060015b60035481101561184657600081815260046020526040902060028101546001600160a01b0380871691160361183357806005015481600301546118269190612639565b61183090846125e7565b92505b508061183e8161264c565b9150506117e3565b506040516370a0823160e01b81523060048201526000906001600160a01b038516906370a0823190602401602060405180830381865afa15801561188e573d6000803e3d6000fd5b505050506040513d601f19601f820116820180604052508101906118b29190612830565b90508181116118f05760405162461bcd60e51b815260206004820152600a6024820152696e6f20737572706c757360b01b6044820152606401610204565b6114b16119056000546001600160a01b031690565b61190f8484612639565b851115611925576119208484612639565b611927565b845b6001600160a01b0387169190612119565b60008281526004602052604081206007810154606091839182918291871061198e5760405162461bcd60e51b81526020600482015260096024820152680c4c2c840d2dcc8caf60bb1b6044820152606401610204565b60008160070188815481106119a5576119a56125bb565b6000918252602090912060039091020180546002820154600183018054939450919263ffffffff82169160ff640100000000820481169265010000000000909204169084906119f3906126e8565b80601f0160208091040260200160405190810160405280929190818152602001828054611a1f906126e8565b8015611a6c5780601f10611a4157610100808354040283529160200191611a6c565b820191906000526020600020905b815481529060010190602001808311611a4f57829003601f168201915b505050505093509650965096509650965050509295509295909350565b611a91611f47565b60008281526004602052604090205482906001600160a01b03163314611ac95760405162461bcd60e51b815260040161020490612574565b82600080600083815260046020526040902060069081015460ff1690811115611af457611af46124f4565b14611b115760405162461bcd60e51b815260040161020490612598565b611b19611f72565b600085815260046020526040902084611b625760405162461bcd60e51b815260206004820152600b60248201526a1e995c9bc8185b5bdd5b9d60aa1b6044820152606401610204565b8060040154858260030154611b7791906125e7565b1115611bba5760405162461bcd60e51b815260206004820152601260248201527132bc31b2b2b2399030b63637b1b0ba34b7b760711b6044820152606401610204565b60028101546001600160a01b0316611c1057843414611c0b5760405162461bcd60e51b815260206004820152600d60248201526c626164206d73672e76616c756560981b6044820152606401610204565b611c6c565b3415611c525760405162461bcd60e51b815260206004820152601160248201527006e6f204156415820666f7220455243323607c1b6044820152606401610204565b6002810154611c6c906001600160a01b03163330886121a2565b84816003016000828254611c8091906125e7565b9091555050604051858152339087907f4a2cd88ec7a748d5b20b3512d7249c67745777b219009075c745923684e9653d9060200160405180910390a38060040154816003015403611cdb5760068101805460ff191660011790555b50611ce560018055565b5050505050565b611cf4611f1a565b6001600160a01b038116611d395760405162461bcd60e51b815260206004820152600c60248201526b7a65726f206164647265737360a01b6044820152606401610204565b600680546001600160a01b0319166001600160a01b0383169081179091556040517f10d6c00fd9d176c2872e8e72b76641ca85aba29bb682a658aeedbc38814fe45f90600090a250565b611d8b611f47565b60008181526004602052604090205481906001600160a01b03163314611dc35760405162461bcd60e51b815260040161020490612574565b60008281526004602052604081209060068083015460ff1690811115611deb57611deb6124f4565b1480611e0f5750600160068083015460ff1690811115611e0d57611e0d6124f4565b145b80611e325750600260068083015460ff1690811115611e3057611e306124f4565b145b611e4e5760405162461bcd60e51b815260040161020490612598565b600581015415611ea05760405162461bcd60e51b815260206004820152601860248201527f736f6d65206d696c6573746f6e657320617070726f76656400000000000000006044820152606401610204565b60068101805460ff1916600417905560405183907fbea9a16b53e772626aff4a26240aa2df599d76b782cfc7666c58f694c6f8393090600090a2505050565b611ee7611f1a565b6001600160a01b038116611f1157604051631e4fbdf760e01b815260006004820152602401610204565b61178981612086565b6000546001600160a01b031633146111955760405163118cdaa760e01b8152336004820152602401610204565b600054600160a01b900460ff16156111955760405163d93c066560e01b815260040160405180910390fd5b600260015403611f9557604051633ee5aeb560e01b815260040160405180910390fd5b6002600155565b6000805b6007830154811015611fff57826007018181548110611fc157611fc16125bb565b906000526020600020906003020160020160059054906101000a900460ff16611fed5750600092915050565b80611ff78161264c565b915050611fa0565b50600192915050565b612010612178565b6000805460ff60a01b191690557f5db9ee0a495bf2e6ff9c91a7834c1ba4fdd244a5e8aa4e537bd38aeae4b073aa335b6040516001600160a01b03909116815260200160405180910390a1565b60008181526004602052604081206005810154600382015461207f9190612639565b9392505050565b600080546001600160a01b038381166001600160a01b0319831681178455604051919092169283917f8be0079c531659141344cd1fd0a4f28419497f9722a3daafe3b4186f6b6457e09190a35050565b6120de611f47565b6000805460ff60a01b1916600160a01b1790557f62e78cea01bee320cd4e420270b5ea74000d11b0c9f74754ebdbfc544b05a2586120403390565b6040516001600160a01b03838116602483015260448201839052610bdf91859182169063a9059cbb906064015b604051602081830303815290604052915060e01b6020820180516001600160e01b0383818316178352505050506121db565b600054600160a01b900460ff1661119557604051638dfc202b60e01b815260040160405180910390fd5b6040516001600160a01b0384811660248301528381166044830152606482018390526114b19186918216906323b872dd90608401612146565b600080602060008451602086016000885af1806121fe576040513d6000823e3d81fd5b50506000513d91508115612216578060011415612223565b6001600160a01b0384163b155b156114b157604051635274afe760e01b81526001600160a01b0385166004820152602401610204565b60006020828403121561225e57600080fd5b813561ffff8116811461207f57600080fd5b60006020828403121561228257600080fd5b5035919050565b6001600160a01b038116811461178957600080fd5b600080604083850312156122b157600080fd5b82356122bc81612289565b915060208301356122cc81612289565b809150509250929050565b600080604083850312156122ea57600080fd5b50508035926020909101359150565b60008083601f84011261230b57600080fd5b50813567ffffffffffffffff81111561232357600080fd5b6020830191508360208260051b850101111561233e57600080fd5b9250929050565b60008060008060008060008060a0898b03121561236157600080fd5b883561236c81612289565b9750602089013561237c81612289565b9650604089013567ffffffffffffffff8082111561239957600080fd5b6123a58c838d016122f9565b909850965060608b01359150808211156123be57600080fd5b6123ca8c838d016122f9565b909650945060808b01359150808211156123e357600080fd5b506123f08b828c016122f9565b999c989b5096995094979396929594505050565b60008060006060848603121561241957600080fd5b505081359360208301359350604090920135919050565b60006020828403121561244257600080fd5b813561207f81612289565b6000806040838503121561246057600080fd5b823561246b81612289565b946020939093013593505050565b8581526000602060a08184015286518060a085015260005b818110156124ad5788810183015185820160c001528201612491565b50600060c0828601015260c0601f19601f8301168501019250505063ffffffff851660408301526124e2606083018515159052565b82151560808301529695505050505050565b634e487b7160e01b600052602160045260246000fd5b6001600160a01b038981168252888116602083015287166040820152606081018690526080810185905260a0810184905261010081016007841061255e57634e487b7160e01b600052602160045260246000fd5b60c082019390935260e001529695505050505050565b6020808252600a90820152691b9bdd0818db1a595b9d60b21b604082015260600190565b60208082526009908201526862616420737461746560b81b604082015260600190565b634e487b7160e01b600052603260045260246000fd5b634e487b7160e01b600052601160045260246000fd5b808201808211156125fa576125fa6125d1565b92915050565b80820281158282048414176125fa576125fa6125d1565b60008261263457634e487b7160e01b600052601260045260246000fd5b500490565b818103818111156125fa576125fa6125d1565b60006001820161265e5761265e6125d1565b5060010190565b6000808335601e1984360301811261267c57600080fd5b83018035915067ffffffffffffffff82111561269757600080fd5b60200191503681900382131561233e57600080fd5b6000602082840312156126be57600080fd5b813563ffffffff8116811461207f57600080fd5b634e487b7160e01b600052604160045260246000fd5b600181811c908216806126fc57607f821691505b60208210810361271c57634e487b7160e01b600052602260045260246000fd5b50919050565b601f821115610bdf57600081815260208120601f850160051c810160208610156127495750805b601f850160051c820191505b8181101561276857828155600101612755565b505050505050565b815167ffffffffffffffff81111561278a5761278a6126d2565b61279e8161279884546126e8565b84612722565b602080601f8311600181146127d357600084156127bb5750858301515b600019600386901b1c1916600185901b178555612768565b600085815260208120601f198616915b82811015612802578886015182559484019460019091019084016127e3565b50858210156128205787850151600019600388901b60f8161c191681555b5050505050600190811b01905550565b60006020828403121561284257600080fd5b505191905056fea264697066735822122029a5fb651af6afc6325108247e8c580cf66087ed62cd732f3ee1f60e0324cb2c64736f6c63430008140033",
  "linkReferences": {},
  "deployedLinkReferences": {}
}